:020000040800F2
:100000000004002011010008E1020008E1020008DC
:10001000E1020008E1020008E1020008E102000834
:10002000E1020008E1020008E102000811030008F3
:10003000E1020008E1020008E102000811040008E2
:10004000E1020008E1020008E1020008E102000804
:10005000E1020008E1020008E1020008E1020008F4
:10006000E1020008E1020008E1020008F1100008C6
:10007000211100085111000881110008B111000878
:10008000E111000811120008E1020008E116000861
:1000900031170008A1170008B1170008E102000895
:1000A000E1020008E1020008E1020008E1020008A4
:1000B000E1020008E1020008E1020008E102000894
:1000C000E1020008E1020008E1020008E102000884
:1000D000E1020008E1020008E1020008E102000874
:0C00E000E1020008E1020008E102000853
:1000F000704700BFAFF30080AFF30080AFF3008024
:10010000FEE700BFAFF30080AFF30080AFF30080E5
:1001100072B6634880F30988022383F31488BFF31F
:100120006F8F604A604CA24217D213464FF0553190
:10013000D64343F8041BA519A342C5F380050CD28E
:1001400025B1196002F10803A34206D21A4642F80B
:10015000041B5960131DA342F8D3544A824217D29C
:1001600013464FF05531D54343F8041B44198342DD
:10017000C4F380040CD224B1196002F10803834255
:1001800006D21E4646F8041B5960331D8342F8D33D
:1001900002F09EF9464C4749A14222D246480B46FE
:1001A000024652F8046BCD4343F8046B04EB050C94
:1001B000A342CCF3800514D23DB1166800F10802C9
:1001C0001E6001F10803A3420BD2104650F8045BF5
:1001D000194641F8045B5668021D5E600B1DA34280
:1001E000F3D3364A3648824217D200211346D4430D
:1001F00043F8041B00EB040E8342CEF380040CD2C0
:1002000024B1196002F10803834206D21A4642F86B
:10021000041B5960131D8342F8D32A4D2A4EFFF761
:1002200067FFB54219D22C4654F8043BE9437718CE
:100230009847B442C7F380070FD22FB1236805F166
:1002400008049847B44208D2254655F8042B904735
:1002500060682C1D8047B442F6D31C4D1C4E02F042
:100260006FF9B5421AD22C46EF4354F8043B06EB23
:10027000070CCCF380079847B4420FD22FB1226805
:1002800005F108049047B44208D2254655F8040BFE
:10029000804761682C1D8847B442F6D3FFF730BF12
:1002A00000080020000000200004002000040020BE
:1002B0000008002000080020402D00080008002051
:1002C000640F0020EC000008EC000008EC000008BF
:1002D000EC000008AFF30080AFF30080AFF30080C4
:1002E000FEE700BFAFF30080AFF30080AFF3008004
:1002F00072B6FEE7AFF30080AFF30080AFF300808B
:1003000000F0F6FA00DF00BFAFF30080AFF300802B
:1003100000B5EFF30983203383F3098800F030F848
:100320005DF804FBAFF30080AFF30080AFF3008013
:100330000A4B002210B59A60094A07201021DA60A2
:1003400000F0D6F80A204FF4007100F0D1F80B202D
:100350008021BDE8104000F0CBB800BF00ED00E008
:100360000003FA05AFF30080AFF30080AFF3008025
:10037000202383F311887047AFF30080AFF3008030
:10038000002383F311887047AFF30080AFF3008040
:1003900000B5FFF7EDFF1748436813F4006F17D05F
:1003A000EFF30983203B83F3098813494FF08070F2
:1003B0008A69D861D07F78B1086892688168914273
:1003C00094BF0022012282B10C4A9A615DF804FBBD
:1003D000FFF7D6FF5DF804FB0868926881689142D8
:1003E00034BF00220122002AEED1054999615DF84F
:1003F00004FB00BF00ED00E0180900200103000825
:1004000004030008AFF30080AFF30080AFF3008077
:1004100010B5FFF7ADFF00F0C3F8FFF7B1FFBDE87F
:100420001040FFF7B5BF00BFAFF30080AFF300800F
:100430002DE9F04FC1F80CD0D0F80CD0BDE8F08F0A
:1004400000B5FFF79DFF2846A04700F011FB5DF8BF
:1004500004FB00BFAFF30080AFF30080AFF3008078
:10046000F0B400F00307FE00FF2313FA06F200F0D9
:100470001F04B1400125A5408608094CC03654F838
:100480002670400927EA020242EA010300F16007F0
:1004900044F8263044F8275044F82050F0BC704708
:1004A00000E100E0AFF30080AFF30080AFF3008025
:1004B00010B400F01F020124944000F00301CA00B0
:1004C000FF2313FA02F24109064B2031800843F85A
:1004D0002140C03053F8201021EA020243F82020C6
:1004E00010BC704700E100E0AFF30080AFF3008084
:1004F00000F0030210B4FF23D40013FA04F2A14069
:100500008008064C063054F8203023EA020242EA02
:10051000010344F8203010BC704700BF00ED00E03C
:100520000248034A83699A61FEE700BF1809002068
:10053000902B0008AFF30080AFF30080AFF3008092
:1005400010B582B0FFF7F4FE00F00AF900F090F861
:1005500000F0DEFB00F014FC40210B4800F0D8F95D
:100560000A4C0122A0610277002383F3118862B64E
:10057000A1691C46064B07488B61C021064B0094BD
:1005800000F016FA02B010BDC008002018090020C3
:10059000A02B00080008002021050008AFF3008010
:1005A00070B5124B9B69DA7F0AB1013ADA771A6AA1
:1005B0000F4C511C1962E3682168581CA142E0608D
:1005C00013D08D68013D8D607DB926460B68CA68E1
:1005D0005E60CD602360FFF7D3FE08699047FFF7A8
:1005E000C7FE216888680028F0D070BD1809002077
:1005F00008090020AFF30080AFF30080AFF3008064
:1006000010B40B4603E09C688268944209D31B68CF
:100610009942F8D14B68016043601860486010BC93
:1006200070471946F6E700BFAFF30080AFF30080D4
:100630004B6801604360486018607047AFF300800A
:100640000346006802681A6053607047AFF3008089
:1006500042680168116003685A607047AFF3008018
:100660000346006802681A60704700BFAFF300805D
:10067000044B4FF0FF3000225B601B609860DA6033
:10068000704700BF08090020AFF30080AFF300807F
:1006900070B40C4C03612568C260AE68B14204D9E5
:1006A0002D68891BAE688E42FAD36B68A54205603F
:1006B000436018606860816002D0A868411AA96030
:1006C00070BC704708090020AFF30080AFF30080D2
:1006D0000368074A934203D0996882688918996031
:1006E0004268002113600368C1605A60704700BF10
:1006F00008090020AFF30080AFF30080AFF3008063
:1007000010B50446FFF734FE037F0D2B0FD8DFE84A
:1007100003F0210E0E070E0B0E0E0E0E0E0E0E0B1C
:10072000406A81684A1C82602046FFF791FF4FF0C3
:10073000FF300022094BA168606222771B689A682B
:100740008A42FBD25968236061600C605C60FFF7ED
:1007500017FE10BDFFF714FE10BD00BF18090020E2
:10076000034B00225B601B609A605B611B617047FA
:1007700018090020AFF30080AFF30080AFF30080D2
:100780000022064B816802771B689A688A42FBD276
:10079000596803604160086058607047180900207C
:1007A00070B5084C1423A5692877EB772046FFF72E
:1007B00047FF012229460277A061BDE87040FFF79C
:1007C00037BE00BF18090020AFF30080AFF30080F0
:1007D00030B5B1F1FF3F87B0054611D00A4C0B4A46
:1007E000A36901A8FFF754FF2846FFF7D9FF049B30
:1007F00013B101A8FFF76CFFA069406A07B030BDD4
:10080000FFF7CEFF004CF7E71809002001070008AA
:1008100030B4144C0346A2698568906859628542D9
:100820000CD800221A772468A0688542FBD9616839
:100830001C6059600B60636030BC70470025157701
:10084000214609688D68A842FBD94868116050604C
:10085000026001204A60187711461846A36130BC37
:10086000FFF7E6BD18090020AFF30080AFF300806A
:1008700070B50D4D2846AC69FFF7E2FE0123037702
:1008800014210023A268E177A86123772D68A96865
:100890008A42FBD96A6821462560626014606C60F8
:1008A000BDE87040FFF7C4BD18090020AFF3008019
:1008B00070B50C4D2846AC69FFF7C2FE012100233C
:1008C000A2680177A86123772D68AB689A42FBD3B1
:1008D0006A6821462560626014606C60BDE8704003
:1008E000FFF7A6BD18090020AFF30080AFF300802A
:1008F00003498869C37F0BB1FFF7DABFFFF7B8BFC1
:1009000018090020AFF30080AFF30080AFF3008040
:10091000F0B400220D4C02260125142306774277FD
:10092000C3778577656900F12C0600F1280704611B
:100930008160456101646061C263826302628261B9
:10094000286187620663C662F0BC70471809002000
:100950002439F0B44718C7604350049B0F497B60AB
:10096000396200250E4E022314210127C1778777B3
:1009700003774577736900F12C0100F128070661C0
:100980008260436102647061C5638563056285614D
:10099000186187620163C162F0BC704741040008BE
:1009A00018090020AFF30080AFF30080AFF30080A0
:1009B00010B59C4682B0FFF7DBFC049C63460094B4
:1009C000FFF7C6FF00210446FFF722FFFFF7D8FC20
:1009D000204602B010BD00BFAFF30080AFF300802F
:1009E00008B50146FFF7C4FC0620FFF7F1FEFFF74C
:1009F000C7FC08BDAFF30080AFF30080AFF3008009
:100A000008B5FFF7B5FC054BD968411A02D006209E
:100A1000FFF7DEFEFFF7B4FC08BD00BF08090020A9
:100A20000F4970B58D69AB6A05F12804A34268626D
:100A300007D02046FFF714FEFFF7A2FEA86AA042E7
:100A4000F7D16A7F12F0030F04D16B69286918612E
:100A500029694B610E20BDE87040FFF7A1BE00BFC1
:100A600018090020AFF30080AFF30080AFF30080DF
:100A700000B5FFF77DFC5DF804EBFFF7D1BF00BFC9
:100A80004060006081607047AFF30080AFF300808A
:100A9000826810B50C46511E00290346816001DBB7
:100AA000002010BD64B101460748826910465362B8
:100AB000FFF7BEFD03202146BDE81040FFF788BECA
:100AC00082604FF0FF3010BD18090020AFF30080A6
:100AD000816810B54B1C002B836000DD10BDFFF753
:100AE000AFFD00224262BDE81040FFF749BE00BFE3
:100AF0000023406000608360704700BFAFF3008058
:100B000070B51C4B846806469D69002C2DD0AA68E0
:100B1000A06882420BD9237FA260042B18D0052B3A
:100B20000FD023B92046FFF793FDFFF729FE284693
:100B30003146FFF765FD04206E62BDE87040FFF7A7
:100B40002FBE2046FFF784FD616AFFF759FDEEE7EF
:100B50002046FFF77DFD616AFFF752FD646AAA68CF
:100B6000A468A1689142D6D3E1E7EA6B8560C260D0
:100B7000E86370BD18090020AFF30080AFF3008078
:100B800008B5FFF7F5FBFFF7BBFFFFF7F9FB08BD63
:100B9000154B10B59A69FFF7EBFBD46B2168E3683E
:100BA000A142D3631AD0106C4BB11968994203D09B
:100BB0008968884238BF0846DB68002BF5D1906011
:100BC0002046FFF73DFDC26B0021A060E260C463D8
:100BD000FFF71EFEFFF7D4FB204610BD0020A060EB
:100BE000FFF7CEFB204610BD18090020AFF30080B0
:100BF00010B5FFF7BDFB064B04689B690C600160F4
:100C00004B6000238A60CB60FFF7BAFB10BD00BFCA
:100C100018090020AFF30080AFF30080AFF300802D
:100C200000B5FFF7A5FB024602E0994207D01A463D
:100C300013689842F9D1FFF7A3FB5DF804FB0B683A
:100C40001360FFF79DFB5DF804FB00BFAFF300806E
:100C500008B5826B037F41EA0202082B82630CD045
:100C6000092B00D008BD436A02EA03018B42F9D187
:100C7000FFF786FD0022426208BD436A1A42F7D19F
:100C800008BD00BFAFF30080AFF30080AFF300807A
:100C900070B50468054684420E460AD0E168606873
:100CA00041EA0603E360A168FFF7D2FF2468AC4283
:100CB000F4D170BDAFF30080AFF30080AFF30080DC
:100CC000104B70B504469D69FFF752FBAB6B10EA01
:100CD00003060DD119B9FFF753FB304670BD6862AA
:100CE0000820FFF775FD002809DBAB6B04EA03065B
:100CF00023EA0600A863FFF743FB304670BDFFF709
:100D00003FFBFAE718090020AFF30080AFF3008043
:100D1000054B064A064823F00701064B116020F0F8
:100D200007021A60704700BF6B0F002038090020CF
:100D30000050002034090020AFF30080AFF30080A2
:100D400000B5FFF715FB094A094913680968073020
:100D500020F00700C91A88429DBF18181060184675
:100D60000020FFF70DFB5DF804FB00BF38090020F1
:100D700034090020AFF30080AFF30080AFF30080B0
:100D8000044B0549002203F1100019609A60DA60F3
:100D9000FFF7AEBE40090020410D0008AFF3008010
:100DA00010B500F0DDFA00F083F9064801F058FBB9
:100DB00000F00EF800F054F800F0DAF8BDE810404A
:100DC00001F08EBB202C0008AFF30080AFF3008051
:100DD00000F0EEBBAFF30080AFF30080AFF3008014
:100DE00000230122027043608360C360036143619A
:100DF0001830FFF77DBE00BFAFF30080AFF3008077
:100E000010B50446FFF7B4FA416000F009FC022374
:100E10002370FFF7B5FA10BDAFF30080AFF3008089
:100E200070B504461D46FFF7A3FA094E82600322FF
:100E30000270C560016100F01BFCB16902206161B4
:100E4000FFF7AEFCB369586AFFF79AFA70BD00BFAE
:100E500018090020AFF30080AFF30080AFF30080EB
:100E600000F0E6BCAFF30080AFF30080AFF300808A
:100E700038B50446002501232946237008306560F3
:100E8000FFF7FEFD294604F11400FFF7F9FD04F118
:100E9000200504F1240004F1280104F12C0204F1DE
:100EA000300325626062A162E262236338BD00BF45
:100EB00038B504460D46FFF75BFA0378022B06D1DE
:100EC00006200121FFF784FC2378022BF8D0012BA8
:100ED00002D0FFF755FA38BD6560204600F0B8FC37
:100EE00003232370FFF74CFA38BD00BFAFF3008037
:100EF000F8B504460D461646FFF73AFA00F1080722
:100F000023782046042B02D001F0FAF840B9384685
:100F10003146FFF7BDFD0028F2D0FFF731FAF8BDEA
:100F20002046294601F0F4F8FFF72AFA0020F8BD20
:100F3000F8B504460D461646FFF71AFA00F11407F5
:100F400023782046042B02D001F012F940B938462C
:100F50003146FFF79DFD0028F2D0FFF711FAF8BDEA
:100F60002046294601F00CF9FFF70AFA0020F8BDE7
:100F700001F08EB9AFF30080AFF30080AFF30080D3
:100F8000002301220270436083600C30FFF7B0BD84
:100F900010B50446FFF7ECF9416001F099F902231E
:100FA0002370FFF7EDF910BDAFF30080AFF30080C1
:100FB00010B50446FFF7DCF901F00AFA204601F00B
:100FC000DFF901232370FFF7DBF910BDAFF30080D9
:100FD00008B5FFF7CDF901F0F3F9FFF7D1F908BD36
:100FE00008B5FFF7C5F901F0F3F9FFF7C9F908BD36
:100FF00038B504461D46FFF7BBF92B46032505709F
:1010000001F0EEF9044902208B69A360FFF7C8FBE9
:10101000FFF7B6F938BD00BF18090020AFF3008014
:1010200010B50446FFF7A4F90323037001F0F8F9A3
:10103000044902208B69A360FFF7B2FBFFF7A0F918
:1010400010BD00BF18090020AFF30080AFF300808F
:101050000C30FFF795BD00BFAFF30080AFF3008009
:10106000FFF796BDAFF30080AFF30080AFF30080D1
:1010700001494B6883607047001000E0AFF30080C7
:10108000084B09495A6883680968D31AC2685B1A11
:101090009342836004D80269934238BF036170476A
:1010A000C3607047001000E060090020AFF30080CB
:1010B00010B50B4A86B00B490B4C002301A80192D6
:1010C0004FF0FF3223600393049302910592FFF7E0
:1010D000CFFF01A802998847039B236006B010BD8B
:1010E000711000088110000860090020AFF3008033
:1010F0000748084A036810B50F241168546013B1FB
:10110000406821409847BDE81040FFF741B900BF53
:101110006409002000000240AFF30080AFF30080BC
:101120000748084A836810B5F024116854601BB161
:10113000C068C1F303119847BDE81040FFF728B914
:101140006409002000000240AFF30080AFF300808C
:101150000848094A036910B54FF470641168546077
:101160001BB14069C1F303219847BDE81040FFF768
:101170000FB900BF6409002000000240AFF30080F7
:101180000848094A836910B54FF4704411685460E7
:101190001BB1C069C1F303319847BDE81040FFF7A8
:1011A000F7B800BF6409002000000240AFF30080E0
:1011B0000848094A036A10B54FF470241168546056
:1011C0001BB1406AC1F303419847BDE81040FFF7E7
:1011D000DFB800BF6409002000000240AFF30080C8
:1011E0000848094A836A10B54FF4700411685460C6
:1011F0001BB1C06AC1F303519847BDE81040FFF727
:10120000C7B800BF6409002000000240AFF30080AF
:101210000848094A036B10B54FF0706411685460B8
:101220001BB1406BC1F303619847BDE81040FFF765
:10123000AFB800BF6409002000000240AFF3008097
:10124000124BF0B4D3F800C0DF689E695D6A1C6B76
:10125000D86B996C0023CCF800300D4ADFF838C009
:101260003B601360336093602B6013612360936174
:101270000360136293621363CCF800300B60054B7C
:101280004FF0FF325A60F0BC704700BFC02B00081F
:1012900064090020000002409C090020AFF3008098
:1012A000F8B5447A012717FA04F6184DD5F800C0AE
:1012B00016EA0C0F25D1164F46EA0C0616F07F0FE2
:1012C00007EBC40C47F83420CCF804302E6004D06F
:1012D000104B5D6945F001045C61036844681F6858
:1012E00027F001061E60057A0F2616FA05F500277D
:1012F00025601F603AB1807A0901FFF7B1F83846DE
:10130000F8BD3846F8BD1046F8BD00BF9C09002066
:101310006409002000100240AFF30080AFF30080AA
:1013200010B50446807AFFF7C3F8637A012212FAF7
:1013300003F0074A116821EA000313F07F0F1360DE
:1013400004D104494B6923F00100486110BD00BF7E
:101350009C09002000100240AFF30080AFF3008032
:10136000224B00224FF0FF3030B421491C6900F5B8
:101370008C3C18611A61DD68D8600CF5A070DA60E9
:101380001C4C486007208A600860E1681A4841F0F8
:101390008071E1600468194944F001040460D8696F
:1013A00040F08050D861D86940F00060D86108688A
:1013B00040F480700860186A00F44071B1F5407F15
:1013C00003D04FF4803119621A62084B1A6A12F482
:1013D000004F07D1186A40F440721A62196A41F44A
:1013E0000040186230BCFFF72BBF00BF0010024066
:1013F00010E000E0F0ED00E0001000E000700040C0
:101400001F4B1868194640F001021A600B681C4A0D
:1014100013F0020FFAD01368002003F0F9011160F5
:10142000114650604868164A10F00C0FFAD1106847
:10143000114640F4803313600B68114A13F4003FE7
:10144000FAD05368114643F4E8105060136843F033
:101450008070106008680A4A10F0007FFAD00948CE
:10146000094B1221506019605068114640F0020388
:1014700053604A6802F00C0CBCF1080FF9D17047B8
:101480000010024000641D0000200240AFF3008005
:1014900011F0080FF8B50D46044626D0C36A01695D
:1014A0001A685D68166826F0010616601B7A0F261A
:1014B0009E40826ACB6800212E6091602BB105228C
:1014C000027098472078052863D000222261FEF739
:1014D0004FFF636933B162614FF0FF3218465A62C1
:1014E000FFF74EF9FEF74CFFF8BD11F0040F06D0E0
:1014F00003699B681BB1C26881685208984715F060
:10150000020F35D021690A68002A32D1E36AA56A40
:1015100018685E68076827F001070760187A0F27C8
:1015200017FA00F08B683060AA60002B34D0E268B4
:101530000420012A207036D9B1F804C052080CFBEF
:1015400002F5A168204601EB4501984794F800E0B8
:10155000BEF1040F20D000222261FEF709FF63696B
:1015600023B1626118465A62FFF70AF9FEF708FFD5
:10157000F8BD8B68002BFBD0E268012A0FD98D885B
:10158000520805FB02F5A168204601EB450198478A
:10159000F8BD0221217098E702222270DBE7204685
:1015A000A1689847F8BD2046A1689847CEE700BFDC
:1015B00010B5144C2046FFF713FC134B13499869E0
:1015C00040F400729A61124B0020A162012248602F
:1015D000E36242F28A5009238A6020638B608B6841
:1015E0000A4A13F0080FFAD105219160906810F0B3
:1015F0000403FBD10548044A8360916921F4007318
:10160000936110BDA0090020001002400024014099
:10161000C02B0008AFF30080AFF30080AFF3008071
:10162000037810B5012B044600D010BD0B49884249
:1016300004D0A36A00215960996010BD0621084AB0
:101640002346C06AFFF72CFEE06A06490268064896
:101650009160836943F400728261EAE7A009002087
:10166000911400084C24014000100240AFF30080A8
:101670000369F0B41968026B09B142F02002C16835
:101680009D880129C46A88BF4D438668216888BF48
:1016900042F004025C69CE604D600A600F681E690A
:1016A00044F48075826A45F0010047F0010746F472
:1016B000807610F4841F0F6008BF45F00300566069
:1016C0009F69DE691D6A596A9B6A40EA0404946056
:1016D000D7601661D562116353639060F0BC7047A8
:1016E0000C4A0D4810B58260FEF742FE0B4C236990
:1016F000002B05DA0A48FFF7EBF921690029F9DB2D
:1017000008480021FFF7C4FAFEF73AFEBDE8104092
:10171000FEF73EBE0101010000640040D409002034
:10172000DC090020F8090020AFF30080AFF300804F
:10173000164B70B5DC6814F0030F15D0586920F013
:1017400002025A61FEF714FE114DEB69002B05DA17
:101750001048FFF7BDF9E9690029F9DB0E480021BF
:10176000FFF796FAFEF70CFE14F0100F09D0074BA6
:101770001021D960FEF7FCFD0848FFF789FAFEF753
:10178000FFFDBDE87040FEF703BE00BF00640040EF
:10179000D4090020E8090020F4090020FC090020F9
:1017A00010B5FEF7A5FDBDE81040FEF7F1BD00BF86
:1017B0001B4B10B55C681C2214F0080F5A601ED138
:1017C00014F0040F17D0164B9A69986902F00701BC
:1017D00020F0700012F0700F986118BF41F00801FE
:1017E000FEF7C6FD0F480F2A98BF41F00101FFF731
:1017F0004FFAFEF7C5FDBDE81040FEF7C9BD0A4827
:101800000321436B01701A6822F002011960FEF790
:10181000AFFD00213030FFF73BFAFEF7B1FDCFE717
:1018200000640040FC090020D4090020AFF30080D0
:1018300010B5034C2046FFF71BFB024B636310BD42
:10184000D409002000640040AFF30080AFF30080B3
:1018500038B5AF4B0446984200F03884626B0221E1
:10186000012021701060536813F0010F08D1062089
:101870000121FEF7ADFF626B536813F0010FF6D044
:10188000636858681968D0611160D2F800029968DD
:1018900040F00100C2F80002002900F0228100217E
:1018A000DB68C2F81C12C2F80412C2F80C12C2F8AB
:1018B0001412197811F0010F05D0D2F8040240F08B
:1018C0000100C2F8040201F0020C5FFA8CF028B1AA
:1018D000D2F80C0240F00100C2F80C0201F0040E34
:1018E0005FFA8EF129B1D2F8141241F00100C2F86A
:1018F000140259689868C2F84012C2F84402D2F83B
:101900001C1241F00103C2F81C32FEF739FDFEF74C
:101910002FFD63689868012800F2FE800023C2F85A
:101920004832C2F84C32FEF72BFDFEF721FD63680A
:101930009868022800F223810023C2F85032C2F8CE
:101940005432FEF71DFDFEF713FD63689868032807
:1019500000F248810023C2F85832C2F85C32FEF728
:101960000FFDFEF705FD63689868042800F26E819C
:101970000023C2F86032C2F86432FEF701FDFEF7C0
:10198000F7FC63689868052800F294810023C2F888
:101990006832C2F86C32FEF7F3FCFEF7E9FC6368CC
:1019A0009868062800F2BA810023C2F87032C2F8A3
:1019B0007432FEF7E5FCFEF7DBFC636898680728E5
:1019C00000F2E0810023C2F87832C2F87C32FEF7E0
:1019D000D7FCFEF7CDFC63689868082800F2068201
:1019E0000023C2F88032C2F88432FEF7C9FCFEF749
:1019F000BFFC63689868092800F22C820023C2F8B3
:101A00008832C2F88C32FEF7BBFCFEF7B1FC63688B
:101A100098680A2800F252820023C2F89032C2F875
:101A20009432FEF7ADFCFEF7A3FC636898680B28C0
:101A300000F278820023C2F89832C2F89C32FEF796
:101A40009FFCFEF795FC636898680C2800F29E8264
:101A50000023C2F8A032C2F8A432FEF791FCFEF7D0
:101A600087FC636898680D2840F2C382D868636B6E
:101A700090F89C109C3011F0010F18BFD3F804525D
:101A800001F0020C1CBF45F40055C3F804525FFA84
:101A90008CF52DB1D3F80C5245F40055C3F80C5217
:101AA00001F0040E5FFA8EF1002940F008834568CA
:101AB0008168C2F8A852C2F8AC12D3F81C0240F4F4
:101AC0000052C3F81C22FEF75BFCFEF751FC626B70
:101AD0001049D2F8000220F00103C2F8003251612F
:101AE00038BD0120C2F84012C2F84412C2F80412F4
:101AF000C2F81412C2F80C02C2F81C02D2F800029A
:101B0000044920F00103C2F80032516138BD00BF22
:101B1000D40900205B8F0100D868017B0C3011F0E4
:101B2000010F40F0C482636B01F0020C5FFA8CF588
:101B30002DB1D3F80C5245F00205C3F80C5201F058
:101B4000040E5FFA8EF129B1D3F8141241F00205A8
:101B5000C3F8145245688068C2F84852C2F84C0273
:101B6000D3F81C1241F00200C3F81C02FEF708FC77
:101B7000FEF7FEFB6368986802287FF6DDAED86842
:101B8000017E183011F0010F40F05982636B01F0B3
:101B9000020C5FFA8CF52DB1D3F80C5245F0040518
:101BA000C3F80C5201F0040E5FFA8EF129B1D3F89C
:101BB000141241F00405C3F8145245688068C2F855
:101BC0005052C2F85402D3F81C1241F00400C3F87A
:101BD0001C02FEF7D5FBFEF7CBFB63689868032871
:101BE0007FF6B8AED86890F82410243011F0010FB9
:101BF00040F02D82636B01F0020C5FFA8CF52DB181
:101C0000D3F80C5245F00805C3F80C5201F0040E4D
:101C10005FFA8EF129B1D3F8141241F00805C3F828
:101C2000145245688068C2F85852C2F85C02D3F872
:101C30001C1241F00800C3F81C02FEF7A1FBFEF7DE
:101C400097FB6368986804287FF692AED86890F88E
:101C50003010303011F0010F40F0D181636B01F092
:101C6000020C5FFA8CF52DB1D3F80C5245F010053B
:101C7000C3F80C5201F0040E5FFA8EF129B1D3F8CB
:101C8000141241F01005C3F8145245688068C2F878
:101C90006052C2F86402D3F81C1241F01000C3F87D
:101CA0001C02FEF76DFBFEF763FB6368986805286E
:101CB0007FF66CAED86890F83C103C3011F0010F04
:101CC00040F0A581636B01F0020C5FFA8CF52DB139
:101CD000D3F80C5245F02005C3F80C5201F0040E65
:101CE0005FFA8EF129B1D3F8141241F02005C3F840
:101CF000145245688068C2F86852C2F86C02D3F882
:101D00001C1241F02000C3F81C02FEF739FBFEF75D
:101D10002FFB6368986806287FF646AED86890F86F
:101D20004810483011F0010F40F07981636B01F0E9
:101D3000020C5FFA8CF52DB1D3F80C5245F040053A
:101D4000C3F80C5201F0040E5FFA8EF129B1D3F8FA
:101D5000141241F04005C3F8145245688068C2F877
:101D60007052C2F87402D3F81C1241F04000C3F85C
:101D70001C02FEF705FBFEF7FBFA6368986807286C
:101D80007FF620AED86890F85410543011F0010F4F
:101D900040F04D81636B01F0020C5FFA8CF52DB1C0
:101DA000D3F80C5245F08005C3F80C5201F0040E34
:101DB0005FFA8EF129B1D3F8141241F08005C3F80F
:101DC000145245688068C2F87852C2F87C02D3F891
:101DD0001C1241F08000C3F81C02FEF7D1FAFEF796
:101DE000C7FA6368986808287FF6FAADD86890F853
:101DF0006010603011F0010F40F03981636B01F029
:101E0000020C5FFA8CF52DB1D3F80C5245F48075B5
:101E1000C3F80C5201F0040E5FFA8EF129B1D3F829
:101E2000141241F48075C3F8145245688068C2F8F2
:101E30008052C2F88402D3F81C1241F48070C3F8B7
:101E40001C02FEF79DFAFEF793FA6368986809286A
:101E50007FF6D4ADD86890F86C106C3011F0010F9B
:101E600040F00D81636B01F0020C5FFA8CF52DB12F
:101E7000D3F80C5245F40075C3F80C5201F0040E6F
:101E80005FFA8EF129B1D3F8141241F40075C3F84A
:101E9000145245688068C2F88852C2F88C02D3F8A0
:101EA0001C1241F40070C3F81C02FEF769FAFEF739
:101EB0005FFA636898680A287FF6AEADD86890F834
:101EC0007810783011F0010F40F0E180636B01F081
:101ED000020C5FFA8CF52DB1D3F80C5245F48065F5
:101EE000C3F80C5201F0040E5FFA8EF129B1D3F859
:101EF000141241F48065C3F8145245688068C2F832
:101F00009052C2F89402D3F81C1241F48060C3F8D6
:101F10001C02FEF735FAFEF72BFA636898680B2867
:101F20007FF688ADD86890F88410843011F0010FE6
:101F300040F0B580636B01F0020C5FFA8CF52DB1B7
:101F4000D3F80C5245F40065C3F80C5201F0040EAE
:101F50005FFA8EF129B1D3F8141241F40065C3F889
:101F6000145245688068C2F89852C2F89C02D3F8AF
:101F70001C1241F40060C3F81C02FEF701FAFEF7E0
:101F8000F7F9636898680C287FF662ADD86890F816
:101F90009010903011F0010F61D1636B01F0020CD1
:101FA0005FFA8CF52DB1D3F80C5245F48055C3F887
:101FB0000C5201F0040E5FFA8EF129B1D3F814121D
:101FC00041F48055C3F8145245688068C2F8A052A5
:101FD000C2F8A402D3F81C1241F48050C3F81C02CA
:101FE000FEF7CEF9FEF7C4F9636898680D283FF64E
:101FF0003DAD0023C2F8A832C2F8AC3263E5636B92
:10200000D3F8045245F01005C3F8045227E6636B79
:10201000D3F8045245F02005C3F8045253E6636B2D
:10202000D3F8045245F04005C3F804527FE6636BD1
:10203000D3F8045245F08005C3F80452ABE6636B55
:10204000D3F8045245F00405C3F804529FE5636BCE
:10205000D3F8045245F00805C3F80452CBE5636B8E
:10206000D3F8045245F48055C3F8045296E7636BE5
:10207000D3F8045245F48075C3F80452BFE6636B8D
:10208000D3F8045245F40075C3F80452EBE6636BD1
:10209000D3F8045245F48065C3F8045217E7636B24
:1020A000D3F8045245F40065C3F8045243E7636B68
:1020B000D3F8045245F00205C3F8045234E5D3F8CE
:1020C000141241F40055C3F81452F0E41320B02167
:1020D000FEF7C6F91420B021FEF7C2F91520B02191
:1020E000FEF7BEF91620B021FEF7BAF90348C16920
:1020F00041F00072C261FFF7B1BB00BF00100240A7
:10210000406B836813F0E05F0CBF00200120704734
:1021100070B4436B0A789C6802F02005E8B2C4F3FF
:102120000164C8B98888C2F3001C450545EA4C051E
:1021300004F11800000102F00F021E1872608E6890
:1021400003EB0412C2F88861CC6845F00101C2F8C3
:102150008C41195070BC7047C2F300164868750076
:1021600045EAC00646F00405E2E700BFAFF3008091
:10217000436BD86810F0030018BF0120704700BF00
:1021800030B4436B0A79D3F8B031C3F3400CC3F3D6
:1021900080046CF3041264F34512144604F0200525
:1021A000EDB20A71002D25D08A68DB0863F31C02AA
:1021B0008A60426BA446D2F8B4311C0A63F3030C64
:1021C00081F804C00C70426B1B0CD2F8B8214B8014
:1021D000CA60426BD2F8BC310B61436B2021D960DD
:1021E000D86810F0030F03D1596941F0020058611B
:1021F00030BC7047B1F808C05A0D62F30A0CA1F860
:1022000008C0D6E7AFF30080AFF30080AFF30080E3
:1022100011F0080F00D17047FEF76AB8AFF30080E5
:1022200011F0080F70B504462FD1626A236A106856
:10223000556806680F2126F001060660107A1A68B4
:1022400011FA00F028601568606825F00105156036
:102250001D7A5A68A940036811609BB1042121705E
:102260002046984794F800C0BCF1040F0AD0A0683B
:1022700038B10022A260FEF77BF8FEF781FAFEF784
:102280007FF870BD02232370F1E7FEF731F8CCE749
:1022900010B50B4A0B4C4FF0FF3C2046A2F800C093
:1022A000FEF76EFE084B094903F10C02236241F26E
:1022B0000A0041F21803E1616262A062E36210BDAC
:1022C0000C0A0020100A0020CC2B0008003001402E
:1022D000037810B5012B044628D0C3696068428991
:1022E00012F4006F19D0E16AA06A21F4506C20F456
:1022F000506040F4A0604CF4A061A062E16242F43E
:1023000041720021072019801A80988019881FFACD
:1023100081FC4CF040021A8010BDA06AE16A20F4F2
:10232000406021F44061A062E162E8E70F49884221
:1023300009D0216A626AE3690868116803F10C0236
:1023400082608A60CAE703460A21094A006AFEF7EA
:10235000A7FF084A2346606A0A21FEF7A1FF064844
:10236000836943F480528261E3E700BF100A0020D2
:10237000212200081122000800100240AFF3008063
:10238000037810B5022B044600D010BDC1690022AD
:10239000006A0A80FEF7C4FF606AFEF7C1FF0448C6
:1023A0008442F2D1034B9A6922F480509861ECE7A1
:1023B000100A002000100240AFF30080AFF300804D
:1023C000426801211089536811FA00F25A6170477E
:1023D000426801211089536811FA00F21A617047AE
:1023E000F0B4046A476A866AC56A2468386846F0A9
:1023F000800645F08005E36061602660C260416050
:102400000560236843F001022260016841F0010386
:102410000360F0BC704700BFAFF30080AFF30080F3
:1024200070B4466A046AC56A33682468806A094ED3
:1024300045F08005E66061602060DA6059601D60EB
:10244000226842F001012160186840F001021A6020
:1024500070BC7047400A0020AFF30080AFF30080EB
:10246000154B30B49A69154D42F07D049C610168AA
:10247000134CE960826813496A604368124A2B6012
:10248000C568124BE560456965600569256084692A
:10249000CC60046A4C60C4690C60416AD160C16A56
:1024A0005160816A1160026BDA60816B5960426B26
:1024B0001A6030BC704700BF0010024000080140A5
:1024C000000C0140001001400014014000180140C0
:1024D000FEF796BFAFF30080AFF30080AFF300804C
:1024E000704700BFAFF30080AFF30080AFF3008010
:1024F000044808B5044A83699A614FF4FA70FEF7FC
:102500006FFAFAE718090020602C0008AFF300808A
:10251000074908488B69084A10B5C4689A611434A1
:1025200000F05EFA00F04CF92046FEF769FAF6E793
:102530001809002008090020682C0008AFF300806B
:1025400010B582B0FEF72CFC0024FDF7F9FF00F077
:10255000E7F900F0C5F800F0C3F94FF4D871402254
:10256000084B09480094FEF723FA08484FF4987185
:102570004022074B0094FEF71BFA4FF47A70FEF7E7
:102580002FFAFAE711250008780B0020480A0020EE
:10259000F1240008AFF30080AFF30080AFF30080B8
:1025A0002DE9F047DFF82091404AD9F8183084B07F
:1025B0009A613F4869460122FEF71AFB3D4E3E4FA5
:1025C000DFF808A13D4CD9F8180090F81DE01EF086
:1025D000040F63D14FF0FF306421FEF771FB002838
:1025E000F1D0344900223648FEF7A2FC0546002807
:1025F000E9D1B268C2F31C01B942F2D1DFF8D08050
:102600006368B8F8002011024A1C62F31C0363607F
:1026100000F096F92072022000F092F96072032017
:1026200000F08EF9E572A07200F04AF94FF667717A
:1026300040188AFB0012C317C3EB622C0120A4F8D8
:102640000CC000F07DF96422E0811C491C48FEF7B3
:102650004FFCB8F80010B26863680802811C61F38F
:102660001C0365F31C026360B26000F019F920815D
:1026700000F006F96422608110491148E560FEF718
:1026800037FC104BB268D86865F31C0280F0020575
:10269000B260C820DD60FEF7A3F9A2E704486946EE
:1026A000FEF7BEFA002004B0BDE8F087802C0008D9
:1026B000F4090020F00E0020674523012C0D0020B6
:1026C000D409002000080140180900208B63EB7733
:1026D000280D0020AFF30080AFF30080AFF300803F
:1026E00030B52C4D2C48A968AA6811F0800FAB6852
:1026F00014BF40244124A96812F0400F14BF4FF0CA
:10270000000C4FF0020C13F0200FAD6804EB0C0E20
:1027100014BF00220422846811F0100F1F4B0EEB2F
:10272000020014BF4FF0000C4FF0080C00EB0C013E
:1027300014F4807FC5F3C00493F800E001EB0415A6
:102740005C6814BF0022202240204EF0200C60F371
:102750001C04AD185C600CF0EF020821402D38BF5E
:1027600040250F4C61F303025F2D28BF5F252580B4
:1027700083B01A700B480C49FEF79AFB00244FF403
:10278000D8714722094B0A480094FEF711F903B0AB
:1027900030BD00BF000C0140000801402C0D00209E
:1027A000280D0020D4090020902C0008A125000845
:1027B000400D0020AFF30080AFF30080AFF3008046
:1027C000704700BFAFF30080AFF30080AFF300802D
:1027D000F8B5044615461F460E46FEF739FC20465E
:1027E0000B49FEF7D5FB2046FEF7F2FB3946324691
:1027F0002B462046FEF7FCFB2046FEF7F1FB204669
:10280000FEF7D6FB2046FEF72BFC0020F8BD00BFEC
:10281000A02C0008AFF30080AFF30080AFF300807E
:10282000F8B5124C0646204617460D46FEF710FC3A
:1028300020460F49FEF7ACFB2046FEF7C9FB3946A0
:1028400032462046FEF7ECFB2046FEF7C9FB204649
:10285000FEF7AEFB2046FEF703FC204605492A465C
:102860000223FFF7B5FF0020F8BD00BF100A0020CB
:10287000A02C0008040F0020AFF30080AFF300800D
:1028800000B583B002A8062340F8083D01A96846B8
:102890000122FFF7C5FFBDF8040003B000BD00BF73
:1028A00000B583B002A8072340F8083D01A9684697
:1028B0000122FFF7B5FFBDF8040003B000BD00BF63
:1028C00000B583B002A8052340F8083D01A9684679
:1028D0000122FFF7A5FFBDF8040003B000BD00BF53
:1028E00010B582B00123064C032202A840F8042D43
:1028F00069461A4623706370FFF792FF02B010BD5D
:10290000040F0020AFF30080AFF30080AFF300802E
:10291000704700BFAFF30080AFF30080AFF30080DB
:1029200008B504480021FEF76BFA034B00221A7029
:1029300008BD00BFA0090020200F0020AFF30080D9
:10294000014B33F920007047080F0020AFF30080DF
:1029500040F6D573984230B430D841282AD940F691
:10296000C371884230D81B4901220B8840F6C475D8
:10297000984208D30FE02A2A02F1010221D01D4615
:102980006388984207D21D464B888C1C01329842BE
:1029900004F10201EFD31FFA82FC0CEB8C02373AF0
:1029A000EB1A92B2C0EB050C0CEB8C0191FBF3F02F
:1029B000101800E09B2000B230BC70474FF6C97081
:1029C000F9E7EB1A9B22EDE74FF6C972122340F6A6
:1029D000D675E7E7B42C0008AFF30080AFF30080B2
:1029E000634A70B513784BB9012010706148624991
:1029F000624A0823BDE87040FEF712BA012BF5D1F8
:102A00005E4C2689B4F810C0218B258C06EB0C0394
:102A1000B4F828E05A18B4F830C0501900EB0E068C
:102A20002588238F06EB0C0105EB010E0EEB03024C
:102A3000C2F3CF00FFF78CFF20EAE07CFDF798FCA3
:102A40004F4ABCF1FF0FA8BF4FF0FF0C0FFA8CF0FC
:102A50001060FDF795FC618A6689658B608C8B1927
:102A6000B4F82AE003EB050C0CEB0006658E6088D9
:102A700006EB0E01B4F83AC04B1900EB030E0EEB57
:102A80000C06F1103F484D0080FB05039E08FDF742
:102A90006FFC4FF6FF7C6645A8BF664631B25160B9
:102AA000FDF76EFCA08AA589B4F81CE0B4F824C038
:102AB0004319A18D03EB0E06A58E06EB0C0000EB6F
:102AC000010EB4F804C0A68F0EEB05030CEB030057
:102AD0008519E910B1F5006FA8BF4FF40061C1F589
:102AE000006C0CEB8C0E28490CEB4E0381FB035061
:102AF000DE17C6EBA015FDF73BFCFF2DA8BFFF2599
:102B00002BB29360FDF73CFCB4F816E0B4F80EC0AD
:102B1000E68BE58C0EEB0C008319B4F82EE003EB8A
:102B2000050CE68E0CEB0E00E588B4F83EE0831948
:102B300005EB030C0EEB0C00C310B3F5006FB8BF30
:102B40004FF40063A3F5006E0EEB8E000EEB400316
:102B500081FB030CDB17C3EBAC10FDF709FCFF286E
:102B6000A8BFFF2001B2D160FDF70AFC3EE700BF1D
:102B7000200F0020A0090020102D0008240F0020A5
:102B8000080F00204FECC44EDB81B976AFF3008014
:102B900069646C6500000000000000000000000097
:102BA0006D61696E00164111040448080C10141878
:102BB000001C1D1E1F20000000000000000000007F
:102BC000080002400400024000000B001C0002400C
:102BD0000400024004010C003000024004000240E6
:102BE00008020D0044000240040002400C030E00E5
:102BF000580002400400024010040F006C00024024
:102C0000040002401405100080000240040002404D
:102C10001806110000000000000000000000000085
:102C2000FFFFFFFF3800B3B484438988FFFFFFFF35
:102C30000048444488888888FFFFFFFF8888888888
:102C400088888888FFFFFFFF44888888888888886C
:102C5000FFFFFFFF88888888888888880000000038
:102C6000626C696E6B6572007461736B32306D7388
:102C70000000000000000000000000000000000054
:102C800072656365697665720000000000000000EF
:102C900040000000050018000000000000000000D7
:102CA00000000000000801400A00300000000000A1
:102CB000D60FC40FAB0F8A0F5E0F250FDC0E810EEF
:102CC000120E8D0DF10C400C7B0BA60AC709E30810
:102CD0000008240752069005DD043D04AE033003CE
:102CE000C20263021002CA018D0158012C010501C4
:102CF000E400C700AF009900870078006A005E001A
:102D000053004A00420000000000000000000000E4
:102D1000000000000400000000000000112900086D
:102D2000000000000000000000000000800400120D
:0C2D3000000030000000000043A0040080
:04000005080000F0FF
:00000001FF
