:020000040800F2
:100000000004002011010008E1020008E1020008DC
:10001000E1020008E1020008E1020008E102000834
:10002000E1020008E1020008E102000811030008F3
:10003000E1020008E1020008E102000801040008F2
:10004000E1020008E1020008E1020008E102000804
:10005000E1020008E1020008E1020008E1020008F4
:10006000E1020008E1020008E102000801110008B5
:10007000311100086111000891110008C111000838
:10008000F111000821120008E102000821190008FE
:1000900071190008E1190008511A0008E10200086E
:1000A000E1020008E1020008E1020008E1020008A4
:1000B000E1020008E1020008E1020008E102000894
:1000C000E1020008E1020008E1020008E102000884
:1000D000E1020008E1020008E1020008E102000874
:0C00E000E1020008E1020008E102000853
:1000F000704700BFAFF30080AFF30080AFF3008024
:10010000FEE700BFAFF30080AFF30080AFF30080E5
:1001100072B6634880F30988022383F31488BFF31F
:100120006F8F604A604CA24217D213464FF0553190
:10013000D64343F8041BA519A342C5F380050CD28E
:1001400025B1196002F10803A34206D21A4642F80B
:10015000041B5960131DA342F8D3544A824217D29C
:1001600013464FF05531D54343F8041B44198342DD
:10017000C4F380040CD224B1196002F10803834255
:1001800006D21E4646F8041B5960331D8342F8D33D
:1001900001F056FF464C4749A14222D246480B4641
:1001A000024652F8046BCD4343F8046B04EB050C94
:1001B000A342CCF3800514D23DB1166800F10802C9
:1001C0001E6001F10803A3420BD2104650F8045BF5
:1001D000194641F8045B5668021D5E600B1DA34280
:1001E000F3D3364A3648824217D200211346D4430D
:1001F00043F8041B00EB040E8342CEF380040CD2C0
:1002000024B1196002F10803834206D21A4642F86B
:10021000041B5960131D8342F8D32A4D2A4EFFF761
:1002200067FFB54219D22C4654F8043BE9437718CE
:100230009847B442C7F380070FD22FB1236805F166
:1002400008049847B44208D2254655F8042B904735
:1002500060682C1D8047B442F6D31C4D1C4E01F043
:1002600027FFB5421AD22C46EF4354F8043B06EB65
:10027000070CCCF380079847B4420FD22FB1226805
:1002800005F108049047B44208D2254655F8040BFE
:10029000804761682C1D8847B442F6D3FFF730BF12
:1002A00000080020000000200004002000040020BE
:1002B00000080020000800209827000800080020FF
:1002C000E40F0020EC000008EC000008EC0000083F
:1002D000EC000008AFF30080AFF30080AFF30080C4
:1002E000FEE700BFAFF30080AFF30080AFF3008004
:1002F00072B6FEE7AFF30080AFF30080AFF300808B
:1003000000F0EEFA00DF00BFAFF30080AFF3008033
:1003100000B5EFF30983203383F3098800F028F850
:100320005DF804FBAFF30080AFF30080AFF3008013
:10033000094B002210B59A60084A07201021DA60A4
:1003400000F0CEF80A20202100F0CAF80B2080210E
:10035000BDE8104000F0C4B800ED00E00003FA056D
:10036000202383F311887047AFF30080AFF3008040
:10037000002383F311887047AFF30080AFF3008050
:1003800000B5FFF7EDFF1748436813F4006F17D06F
:10039000EFF309834FF08072203BDA6183F3098821
:1003A00011498A69D07F78B1086892688168914262
:1003B00094BF0022012282B10C4A9A615DF804FBCD
:1003C000FFF7D6FF5DF804FB0868926881689142E8
:1003D00034BF00220122002AEED1054999615DF85F
:1003E00004FB00BF00ED00E0380900200103000815
:1003F00004030008AFF30080AFF30080AFF3008088
:1004000010B5FFF7ADFF00F0C3F8FFF7B1FFBDE88F
:100410001040FFF7B5BF00BFAFF30080AFF300801F
:100420002DE9F04FC1F80CD0D0F80CD0BDE8F08F1A
:1004300000B5FFF79DFF2846A04700F011FB5DF8CF
:1004400004FB00BFAFF30080AFF30080AFF3008088
:10045000F0B400F00307FE00FF2313FA06F200F0E9
:100460001F04B1400125A5408608094CC03654F848
:100470002670400927EA020242EA010300F1600700
:1004800044F8263044F8275044F82050F0BC704718
:1004900000E100E0AFF30080AFF30080AFF3008035
:1004A00010B400F01F020124944000F00301CA00C0
:1004B000FF2313FA02F24109064B2031800843F86A
:1004C0002140C03053F8201021EA020243F82020D6
:1004D00010BC704700E100E0AFF30080AFF3008094
:1004E00000F0030210B4FF23D40013FA04F2A14079
:1004F0008008064C063054F8203023EA020242EA13
:10050000010344F8203010BC704700BF00ED00E04C
:100510000248034A83699A61FEE700BF3809002058
:10052000F0250008AFF30080AFF30080AFF3008048
:1005300010B582B0FFF7FCFE00F00AF900F090F869
:1005400000F0DEFB00F014FC40210B4800F0D8F96D
:100550000A4C0122A0610277002383F3118862B65E
:10056000A1691C46064B07488B61E021064B0094AD
:1005700000F016FA02B010BD000800203809002073
:10058000002600084808002011050008AFF300808D
:1005900070B5124B9B69DA7F0AB1013ADA771A6AB1
:1005A0000F4C511C1962E3682168581CA142E0609D
:1005B00013D08D68013D8D607DB926460B68CA68F1
:1005C0005E60CD602360FFF7D3FE08699047FFF7B8
:1005D000C7FE216888680028F0D070BD3809002067
:1005E00028090020AFF30080AFF30080AFF3008054
:1005F00010B40B4603E09C688268944209D31B68E0
:100600009942F8D14B68016043601860486010BCA3
:1006100070471946F6E700BFAFF30080AFF30080E4
:100620004B6801604360486018607047AFF300801A
:100630000346006802681A6053607047AFF3008099
:1006400042680168116003685A607047AFF3008028
:100650000346006802681A60704700BFAFF300806D
:10066000044B4FF0FF3000225B601B609860DA6043
:10067000704700BF28090020AFF30080AFF300806F
:1006800070B40C4C03612568C260AE68B14204D9F5
:100690002D68891BAE688E42FAD36B68A54205604F
:1006A000436018606860816002D0A868411AA96040
:1006B00070BC704728090020AFF30080AFF30080C2
:1006C0000368074A934203D0996882688918996041
:1006D0004268002113600368C1605A60704700BF20
:1006E00028090020AFF30080AFF30080AFF3008053
:1006F00010B50446FFF734FE037F0D2B0FD8DFE85B
:1007000003F0210E0E070E0B0E0E0E0E0E0E0E0B2C
:10071000406A81684A1C82602046FFF791FF4FF0D3
:10072000FF300022094BA168606222771B689A683B
:100730008A42FBD25968236061600C605C60FFF7FD
:1007400017FE10BDFFF714FE10BD00BF38090020D2
:10075000034B00225B601B609A605B611B6170470A
:1007600038090020AFF30080AFF30080AFF30080C2
:100770000022064B816802771B689A688A42FBD286
:10078000596803604160086058607047380900206C
:1007900070B5084C1423A5692877EB772046FFF73E
:1007A00047FF012229460277A061BDE87040FFF7AC
:1007B00037BE00BF38090020AFF30080AFF30080E0
:1007C00030B5B1F1FF3F87B0054611D00A4C0B4A56
:1007D000A36901A8FFF754FF2846FFF7D9FF049B40
:1007E00013B101A8FFF76CFFA069406A07B030BDE4
:1007F000FFF7CEFF004CF7E738090020F1060008AC
:1008000030B4144C0346A2698568906859628542E9
:100810000CD800221A772468A0688542FBD9616849
:100820001C6059600B60636030BC70470025157711
:10083000214609688D68A842FBD94868116050605C
:10084000026001204A60187711461846A36130BC47
:10085000FFF7E6BD38090020AFF30080AFF300805A
:1008600070B50D4D2846AC69FFF7E2FE0123037712
:1008700014210023A268E177A86123772D68A96875
:100880008A42FBD96A6821462560626014606C6008
:10089000BDE87040FFF7C4BD38090020AFF3008009
:1008A00070B50C4D2846AC69FFF7C2FE012100234C
:1008B000A2680177A86123772D68AB689A42FBD3C1
:1008C0006A6821462560626014606C60BDE8704013
:1008D000FFF7A6BD38090020AFF30080AFF300801A
:1008E00003498869C37F0BB1FFF7DABFFFF7B8BFD1
:1008F00038090020AFF30080AFF30080AFF3008031
:10090000F0B400220D4C022601251423067742770D
:10091000C3778577656900F12C0600F1280704612B
:100920008160456101646061C263826302628261C9
:10093000286187620663C662F0BC704738090020F0
:100940002439F0B44718C7604350049B0F497B60BB
:10095000396200250E4E022314210127C1778777C3
:1009600003774577736900F12C0100F128070661D0
:100970008260436102647061C5638563056285615D
:10098000186187620163C162F0BC704731040008DE
:1009900038090020AFF30080AFF30080AFF3008090
:1009A00010B59C4682B0FFF7DBFC049C63460094C4
:1009B000FFF7C6FF00210446FFF722FFFFF7D8FC30
:1009C000204602B010BD00BFAFF30080AFF300803F
:1009D00008B50146FFF7C4FC0620FFF7F1FEFFF75C
:1009E000C7FC08BDAFF30080AFF30080AFF3008019
:1009F00008B5FFF7B5FC054BD968411A02D00620AF
:100A0000FFF7DEFEFFF7B4FC08BD00BF2809002099
:100A10000F4970B58D69AB6A05F12804A34268627D
:100A200007D02046FFF714FEFFF7A2FEA86AA042F7
:100A3000F7D16A7F12F0030F04D16B69286918613E
:100A400029694B610E20BDE87040FFF7A1BE00BFD1
:100A500038090020AFF30080AFF30080AFF30080CF
:100A600000B5FFF77DFC5DF804EBFFF7D1BF00BFD9
:100A70004060006081607047AFF30080AFF300809A
:100A8000826810B50C46511E00290346816001DBC7
:100A9000002010BD64B101460748826910465362C8
:100AA000FFF7BEFD03202146BDE81040FFF788BEDA
:100AB00082604FF0FF3010BD38090020AFF3008096
:100AC000816810B54B1C002B836000DD10BDFFF763
:100AD000AFFD00224262BDE81040FFF749BE00BFF3
:100AE0000023406000608360704700BFAFF3008068
:100AF00070B51C4B846806469D69002C2DD0AA68F1
:100B0000A06882420BD9237FA260042B18D0052B4A
:100B10000FD023B92046FFF793FDFFF729FE2846A3
:100B20003146FFF765FD04206E62BDE87040FFF7B7
:100B30002FBE2046FFF784FD616AFFF759FDEEE7FF
:100B40002046FFF77DFD616AFFF752FD646AAA68DF
:100B5000A468A1689142D6D3E1E7EA6B8560C260E0
:100B6000E86370BD38090020AFF30080AFF3008068
:100B700008B5FFF7F5FBFFF7BBFFFFF7F9FB08BD73
:100B8000154B10B59A69FFF7EBFBD46B2168E3684E
:100B9000A142D3631AD0106C4BB11968994203D0AB
:100BA0008968884238BF0846DB68002BF5D1906021
:100BB0002046FFF73DFDC26B0021A060E260C463E8
:100BC000FFF71EFEFFF7D4FB204610BD0020A060FB
:100BD000FFF7CEFB204610BD38090020AFF30080A0
:100BE00010B5FFF7BDFB064B04689B690C60016004
:100BF0004B6000238A60CB60FFF7BAFB10BD00BFDB
:100C000038090020AFF30080AFF30080AFF300801D
:100C100000B5FFF7A5FB024602E0994207D01A464D
:100C200013689842F9D1FFF7A3FB5DF804FB0B684A
:100C30001360FFF79DFB5DF804FB00BFAFF300807E
:100C400008B5826B037F41EA0202082B82630CD055
:100C5000092B00D008BD436A02EA03018B42F9D197
:100C6000FFF786FD0022426208BD436A1A42F7D1AF
:100C700008BD00BFAFF30080AFF30080AFF300808A
:100C800070B50468054684420E460AD0E168606883
:100C900041EA0603E360A168FFF7D2FF2468AC4293
:100CA000F4D170BDAFF30080AFF30080AFF30080EC
:100CB000104B70B504469D69FFF752FBAB6B10EA11
:100CC00003060DD119B9FFF753FB304670BD6862BA
:100CD0000820FFF775FD002809DBAB6B04EA03066B
:100CE00023EA0600A863FFF743FB304670BDFFF719
:100CF0003FFBFAE738090020AFF30080AFF3008034
:100D0000054B064A064823F00701064B116020F008
:100D100007021A60704700BFEB0F0020580900203F
:100D20000050002054090020AFF30080AFF3008092
:100D300000B5FFF715FB094A094913680968073030
:100D400020F00700C91A88429DBF18181060184685
:100D50000020FFF70DFB5DF804FB00BF58090020E1
:100D600054090020AFF30080AFF30080AFF30080A0
:100D7000044B0549002203F1100019609A60DA6003
:100D8000FFF7AEBE60090020310D0008AFF3008010
:100D900010B500F0EDFA00F093F9064800F0F0FF0E
:100DA00000F00EF800F054F800F0EAF8BDE810404A
:100DB00001F04EB980260008AFF30080AFF3008049
:100DC00000F0E6BBAFF30080AFF30080AFF300802C
:100DD00000230122027043608360C36003614361AA
:100DE0001830FFF77DBE00BFAFF30080AFF3008087
:100DF00010B50446FFF7B4FA416000F001FC02238D
:100E00002370FFF7B5FA10BDAFF30080AFF3008099
:100E100070B504461D46FFF7A3FA094E826003220F
:100E20000270C560016100F013FCB16902206161CC
:100E3000FFF7AEFCB369586AFFF79AFA70BD00BFBE
:100E400038090020AFF30080AFF30080AFF30080DB
:100E500000F03EBEAFF30080AFF30080AFF3008040
:100E600038B5044600250123294623700830656003
:100E7000FFF7FEFD294604F11400FFF7F9FD04F128
:100E8000200504F1240004F1280104F12C0204F1EE
:100E9000300325626062A162E262236338BD00BF55
:100EA00038B504460D46FFF75BFA0378022B06D1EE
:100EB00006200121FFF784FC2378022BF8D0012BB8
:100EC00002D0FFF755FA38BD6560204600F018FEE5
:100ED00003232370FFF74CFA38BD00BFAFF3008047
:100EE0002DE9F04104460D4617461E46FFF738FA35
:100EF00000F1080823782946042B204602D000F090
:100F00003FFE48B940463146FFF7BAFD0028F1D010
:100F1000FFF72EFABDE8F081204629463A4600F058
:100F20004FFEFFF725FA0020BDE8F081AFF3008007
:100F30002DE9F04104460D4617461E46FFF710FA0C
:100F400000F1140823782946042B204602D000F033
:100F50007FFE48B940463146FFF792FD0028F1D0A8
:100F6000FFF706FABDE8F081204629463A4600F030
:100F700097FEFFF7FDF90020BDE8F081AFF3008098
:100F800000F07EBFAFF30080AFF30080AFF30080CE
:100F9000002301220270436083600C30FFF7A0BD84
:100FA00010B50446FFF7DCF9416000F089FF022329
:100FB0002370FFF7DDF910BDAFF30080AFF30080C1
:100FC00010B50446FFF7CCF900F0F2FF204600F020
:100FD000C7FF01232370FFF7CBF910BDAFF30080EB
:100FE00008B5FFF7BDF900F0DBFFFFF7C1F908BD59
:100FF00008B5FFF7B5F900F0DBFFFFF7B9F908BD59
:1010000038B504461D46FFF7ABF92B46032505709E
:1010100000F0D6FF044902208B69A360FFF7B8FBFC
:10102000FFF7A6F938BD00BF38090020AFF30080F4
:1010300010B50446FFF794F90323037000F0E0FFB6
:10104000044902208B69A360FFF7A2FBFFF790F928
:1010500010BD00BF38090020AFF30080AFF300805F
:101060000C30FFF785BD00BFAFF30080AFF3008009
:10107000FFF786BDAFF30080AFF30080AFF30080D1
:1010800001494B6883607047001000E0AFF30080B7
:10109000084B09495A6883680968D31AC2685B1A01
:1010A0009342836004D80269934238BF036170475A
:1010B000C3607047001000E080090020AFF300809B
:1010C00010B50B4A86B00B490B4C002301A80192C6
:1010D0004FF0FF3223600393049302910592FFF7D0
:1010E000CFFF01A802998847039B236006B010BD7B
:1010F000811000089110000880090020AFF30080E3
:10110000074A08481168036801F00F0110B55160E3
:101110000BB140689847BDE81040FFF731B900BFF8
:101120000000024084090020AFF30080AFF300808C
:10113000074A084811688368C1F3031110B50C0110
:1011400054600BB1C0689847BDE81040FFF718B96C
:101150000000024084090020AFF30080AFF300805C
:10116000074A084811680369C1F3032110B50C024E
:1011700054600BB140699847BDE81040FFF700B9D3
:101180000000024084090020AFF30080AFF300802C
:10119000074A084811688369C1F3033110B50C038D
:1011A00054600BB1C0699847BDE81040FFF7E8B83C
:1011B0000000024084090020AFF30080AFF30080FC
:1011C000074A08481168036AC1F3034110B50C04CB
:1011D00054600BB1406A9847BDE81040FFF7D0B8A3
:1011E0000000024084090020AFF30080AFF30080CC
:1011F000074A08481168836AC1F3035110B50C050A
:1012000054600BB1C06A9847BDE81040FFF7B8B80A
:101210000000024084090020AFF30080AFF300809B
:10122000074A08481168036BC1F3036110B50C0647
:1012300054600BB1406B9847BDE81040FFF7A0B871
:101240000000024084090020AFF30080AFF300806B
:10125000124BF0B4D3F800C0DF689E695D6A1C6B66
:10126000D86B996C0023CCF800300D4ADFF838C0F9
:101270003B601360336093602B6013612360936164
:101280000360136293621363CCF800300B60054B6C
:101290004FF0FF325A60F0BC704700BF20260008B4
:1012A0008409002000000240BC090020AFF3008048
:1012B000F8B5447A012717FA04F6184DD5F800C09E
:1012C00016EA0C0F25D1164F46EA0C0616F07F0FD2
:1012D00007EBC40C47F83420CCF804302E6004D05F
:1012E000104B5D6945F001045C61036844681F6848
:1012F00027F00F061E60057A0F2616FA05F500275F
:1013000025601F603AB1807A0901FFF7A1F83846DD
:10131000F8BD3846F8BD1046F8BD00BFBC09002036
:101320008409002000100240AFF30080AFF300807A
:1013300010B5447A012111FA04F3094C807A22682D
:1013400022EA03012160FFF7ABF8236813F07F0F57
:1013500004D1044B5A6922F00100586110BD00BF4E
:10136000BC09002000100240AFF30080AFF3008002
:10137000164B30B400214FF0FF3418691C6119611D
:10138000DD68134ADC6004F58C3404F5A074D96080
:1013900010485460916007211160C2680E4942F004
:1013A0008072C26008680D4A40F001000860D86988
:1013B00040F08051D961D86940F00061D96110686E
:1013C00040F48073136030BCFFF742BF001002404E
:1013D00010E000E0F0ED00E0001000E000700040E0
:1013E000224B1868194640F001021A600B681F4A28
:1013F00013F0020FFAD05068114620F00303536037
:10140000506850604B68194A13F00C03FAD1106809
:10141000114600F0F90010605360136843F4803007
:1014200010600B68114A13F4003FFAD0536811465C
:1014300043F4E8105060136843F08070106008684F
:101440000A4A10F0007FFAD009480A4B1221506076
:1014500019605068114640F0020353604A6802F078
:101460000C0CBCF1080FF9D1704700BF001002400E
:1014700000641D0000200240AFF30080AFF3008045
:1014800011F0080FF8B5044626D0C36A01691A683E
:101490005D68166826F00F0616601B7A0F269E40C0
:1014A000826A8B6800212E6091602BB10522027048
:1014B00098472078052858D000222261FEF750FF77
:1014C000636933B162614FF0FF3218465A62FFF729
:1014D0004FF9FEF74DFFF8BD11F0020F2BD0016957
:1014E0000D78002D32D1C36A866A1A685F68D2F817
:1014F00000C02CF00F0EC2F800E01A7A4B680F21E2
:1015000011FA02F23A60B560002B31D0042101706B
:10151000C268816898472078042830D0FEF720FF01
:1015200063692BB10021616118465962FFF720F908
:10153000FEF71EFFF8BD11F0040F06D003695B68CB
:101540001BB1C268816852089847F8BD4B68002BF0
:10155000FBD0C268012A0FD94D88520805FB02F55D
:10156000816801EB45019847F8BD02212170A3E78E
:10157000022202700361D1E781689847F8BD022317
:1015800023702561CAE700BFAFF30080AFF300808E
:1015900010B5144C2046FFF71BFC134B13499869F8
:1015A00040F400729A61124B0020A162012248604F
:1015B000E36242F28A5009238A6020638B608B6861
:1015C0000A4A13F0080FFAD105219160906810F0D3
:1015D0000403FBD10548044A8360916921F4007338
:1015E000936110BDC009002000100240002401409A
:1015F00020260008AFF30080AFF30080AFF3008037
:10160000037810B5012B044600D010BD0B49884269
:1016100004D0A36A00215960996010BD0621084AD0
:101620002346C06AFFF744FEE06A0649026806489E
:101630009160836943F400728261EAE7C009002087
:10164000811400084C24014000100240AFF30080D8
:101650000369F0B41978026B00292DD1C168B3F881
:1016600002C0C46A0CFB01F5866821681C69CE6063
:101670004D600A600F68DE6844F48075826A45F048
:10168000010047F0010746F4807610F4841F0F60D4
:1016900008BF45F0030056605F699E69DD69196AFD
:1016A0005B6A40EA04049460D7601661D5621163F6
:1016B00053639060F0BC7047C16842F0200201297A
:1016C00088BF42F00402CAE7AFF30080AFF30080A6
:1016D000F0B4914C914BE56945F00075E561D3F8A4
:1016E0000042240C240444F0010444EA0020C3F81E
:1016F0000002002900F002810024012611F0010FF0
:10170000C3F81C422746C3F804421846C3F80C42EB
:10171000C3F81442C3F84042C3F84442C3F84842F5
:10172000C3F84C42C3F85042C3F85442C3F858427D
:10173000C3F85C42C3F86042C3F86442C3F868422D
:10174000C3F86C42C3F87042C3F87442C3F87842DD
:10175000C3F87C42C3F88042C3F88442C3F888428D
:10176000C3F88C42C3F89042C3F89442C3F898423D
:10177000C3F89C42C3F8A042C3F8A442C3F8A842ED
:10178000C3F8AC4273D11568137916FA05F413F057
:10179000010F05D0D0F8047244EA0707C0F80472BC
:1017A00003F0020C5FFA8CF72FB1D0F80C7244EA08
:1017B0000707C0F80C7203F0040C5FFA8CF32BB12E
:1017C000D0F8143244EA0307C0F814729768483519
:1017D00040F83570EB00D76803F1804505F5C84C3B
:1017E000CCF80470D0F81C32012744EA0305C0F895
:1017F0001C5210323BE002F110031C79126916FAF8
:1018000002F514F0010F05D0D0F804C245EA0C0C23
:10181000C0F804C204F0020C5FFA8CFCBCF1000FAB
:1018200005D0D0F80CC245EA0C0CC0F80CC204F08C
:10183000040C5FFA8CF42CB1D0F8144245EA04048D
:10184000C0F814429C68483240F83240D200DC684C
:1018500002F1804202F5C84CCCF80440D0F81C429A
:10186000013745EA0402C0F81C2203F11002136894
:10187000147916FA03F514F0010F05D0D0F804C25C
:1018800045EA0C0CC0F804C204F0020C5FFA8CFCB0
:10189000BCF1000F05D0D0F80CC245EA0C0CC0F822
:1018A0000CC204F0040C5FFA8CF42CB1D0F8144292
:1018B00045EA0404C0F814429468483340F83340C1
:1018C000DB00D46803F1804303F5C84CCCF8044036
:1018D000D0F81C3201371D438F42C0F81C528AD108
:1018E0000E4A0D48D2F8003223F00101C2F800126E
:1018F000C36923F00071C161F0BC70470122C3F8D5
:101900004012C3F84412C3F80412C3F81412C3F807
:101910000C22C3F81C22E3E70010024000640040E0
:1019200010B50C4C0C4A606B8260FEF719FD236900
:10193000002B05DA0948FFF7C3F821690029F9DB14
:1019400007480121FFF79CF9FEF712FDBDE81040A2
:10195000FEF716BDF409002001010100FC0900207A
:10196000180A0020AFF30080AFF30080AFF30080CF
:1019700070B5164C636BDD6815F0030F14D0586911
:1019800020F002025A61FEF7EBFCE369002B05DA56
:101990000F48FFF795F8E1690029F9DB0D480121AF
:1019A000FFF76EF9FEF7E4FC15F0100F09D0636B3A
:1019B0001021D960FEF7D4FC0748FFF761F9FEF764
:1019C000D7FCBDE87040FEF7DBBC00BFF409002087
:1019D000080A0020140A00201C0A0020AFF300802F
:1019E00070B5164C636B1D6915F0030F14D0586960
:1019F00020F010025A61FEF7B3FCE369002B05DA10
:101A00000F48FFF75DF8E1690029F9DB0D48022175
:101A1000FFF736F9FEF7ACFC15F0100F09D0636B39
:101A200010211961FEF79CFC0748FFF729F9FEF722
:101A30009FFCBDE87040FEF7A3BC00BFF409002086
:101A4000080A0020140A00201C0A0020AFF30080BE
:101A500070B51A4D1C226B6B5C685A6014F0080F4D
:101A60001CD114F0040F15D06B6B9A69986902F0C1
:101A7000070C20F0700112F0700F996118BF4CF044
:101A8000080CFEF76DFC0E484CEA0241FFF7F8F82F
:101A9000FEF76EFCBDE87040FEF772BC18680321CB
:101AA00020F00202284600F8301B1A60FEF758FCAE
:101AB0000021FFF7E5F8FEF75BFCD2E7F409002010
:101AC0001C0A0020AFF30080AFF30080AFF300806A
:101AD00010B5064C2046FFF7C3F90021044B0E2039
:101AE0000A466363BDE81040FFF7F2BDF409002029
:101AF00000640040AFF30080AFF30080AFF30080DC
:101B00001A4B10B59842044619D0636B022101208C
:101B1000217018605A6812F0010F08D106200121C7
:101B2000FEF74EFE636B5A6812F0010FF6D0606844
:101B3000416802680E48D9611A60586110BD1320CF
:101B4000B021FEF785FC1420B021FEF781FC1520A2
:101B5000B021FEF77DFC1620B021FEF779FC054888
:101B6000C16941F00072C261CFE700BFF4090020F3
:101B70005B8F010000100240AFF30080AFF30080E4
:101B800003291AD8DFE801F0110C0702426B9168B3
:101B9000C1F300707047406B8368C3F3C060704747
:101BA000426B9168C1F380607047406B836813F0AB
:101BB000E05F0CBF0020012070470020704700BF8D
:101BC00010B403291ED8DFE801F034301F02416B46
:101BD00001F5D073117801F0200C5FFA8CF0E8B1B8
:101BE0005068C1F30014640044EAC00444F00404E3
:101BF00001F00F015960906844F001019860D268CB
:101C0000DA60196010BC70471178436B01F0200C4A
:101C10005FFA8CF003F5C8730028E1D19088C1F316
:101C2000001C440544EA4C04E2E7446B04F5C0732D
:101C3000D0E7416B8868C0F30163183301EB0313ED
:101C4000C8E700BFAFF30080AFF30080AFF30080C0
:101C500001290FD003D3022913D000207047436B12
:101C6000DA6812F0030F13D1196911F0030018BFDD
:101C700001207047436BD86810F0030018BF0120A3
:101C80007047436B196911F0030018BF01207047BA
:101C900001207047AFF30080AFF30080AFF3008006
:101CA00030B4002936D1436BD96811F0030F37D017
:101CB000D3F8B041D3F8B411D3F8B831D360456B41
:101CC000D5F8BC3120251361436BDD60D86810F076
:101CD000030F48D092F804C0C4F3400565F3041C18
:101CE000C4F3800060F3451C604600F02003DDB2C1
:101CF00082F804C0002D2ED09368E40864F31C031E
:101D00009360034661F30303080A090C1371107012
:101D1000518003E001292BD002292BD030BC704721
:101D2000196911F0030FF9D0D3F8C041D3F8C411E9
:101D3000D3F8C831D360456BD5F8CC312025136179
:101D4000436B1D61186910F0030FC3D15D6945F045
:101D500010005861BEE7B2F808C0640D64F30A0CC5
:101D6000A2F808C0CDE75D6945F002005861B1E70F
:101D7000436B9DE7436BD7E7AFF30080AFF3008081
:101D8000154B30B49A69154D42F07D049C61016891
:101D9000134CE960826813496A604368124A2B60F9
:101DA000C568124BE5604569656005692560846911
:101DB000CC60046A4C60C4690C60416AD160C16A3D
:101DC0005160816A1160026BDA60816B5960426B0D
:101DD0001A6030BC704700BF00100240000801408C
:101DE000000C0140001001400014014000180140A7
:101DF00011F0080F00D17047FEF77ABAAFF30080F8
:101E000011F0080F70B5044631D1626A236A106878
:101E1000556806680F2126F00F060660107A1A68CA
:101E200011FA00F028601568606825F00F0515604C
:101E30001D7A5A68A94003681160ABB10421217072
:101E40002046984794F800C0BCF1040F0CD0FEF770
:101E500087FAA3682BB10022A26018465A62FEF7E7
:101E600087FCFEF785FA70BD02232370EFE7FEF7CB
:101E70003FFACAE7AFF30080AFF30080AFF3008012
:101E800010B50B4A0B4C4FF0FF3C2046A2F800C0A7
:101E9000FFF77EF8084B094903F10C02236241F277
:101EA0000A0041F21803E1616262A062E36210BDC0
:101EB0002C0A0020300A00202C26000800300140A7
:101EC000037810B5012B044620D0C3696268A06A6C
:101ED0005289E16A12F4006F20F4706021F470619D
:101EE0001CBF40F4A06041F4A061A062E16242F432
:101EF000417C002007211880A3F800C099801A882F
:101F000090B240F0400CA3F800C010BD0F498842C9
:101F100009D0216A626AE3690868116803F10C025A
:101F200082608A60D2E703460A21094A006AFFF705
:101F3000BFF9084A2346606A0A21FFF7B9F9064843
:101F4000836943F480528261E3E700BF300A0020D6
:101F5000011E0008F11D000800100240AFF30080D0
:101F6000037810B5022B044600D010BDC1690022D1
:101F7000006A0A808A80FFF7DBF9606AFFF7D8F908
:101F800004488442F1D1044B9A6922F4805098614C
:101F9000EBE700BF300A002000100240AFF30080E2
:101FA000426801211089536811FA00F25A617047A2
:101FB000426801211089536811FA00F21A617047D2
:101FC000F0B4046A476A866AC56A2468386846F0CD
:101FD000800645F08005E36061602660C260416074
:101FE0000560236843F001022260016841F00103AB
:101FF0000360F0BC704700BFAFF30080AFF3008018
:1020000070B4466A046AC56A33682468806A094EF7
:1020100045F08005E66061602060DA6059601D600F
:10202000226842F001012160186840F001021A6044
:1020300070BC7047600A0020AFF30080AFF30080EF
:10204000FFF7CEB9AFF30080AFF30080AFF30080AD
:10205000704700BFAFF30080AFF30080AFF30080A4
:10206000044808B5044A83699A614FF4FA70FEF790
:10207000AFFCFAE738090020C0260008AFF3008063
:10208000074908488B69084A10B5C4689A61143436
:1020900000F0FEF900F01CF92046FEF7A9FCF6E777
:1020A0003809002028090020C8260008AFF3008066
:1020B00010B582B0FEF76CFE0024FEF739FA00F08E
:1020C00087F900F095F800F063F94FF4E8714022C9
:1020D000084B09480094FEF763FC08484FF4A871C8
:1020E0004022074B0094FEF75BFC4FF47A70FEF73A
:1020F0006FFCFAE781200008B80B0020680A002076
:1021000061200008AFF30080AFF30080AFF30080E0
:102110002DE9F043DFF8C8802A4AD8F8183085B096
:102120009A61294869460122FEF75AFD274D284E3B
:10213000284FDFF8B090D8F8181091F81DC01CF0A7
:10214000040F37D14FF0FF306421FEF7B1FD0028B6
:10215000F1D000210B461D4A1F48FEF7E9FE044658
:102160000028E8D1A968C1F31C00B042F1D1B9F848
:10217000000079680202531C63F31C01796002209D
:1021800000F036F9B860032000F032F92146F8601B
:102190006423104A1048FEF7A3FE104BAA68D868C3
:1021A00064F31C0280F00204AA60C820DC60FEF721
:1021B0000FFCCEE704486946FEF72AFD002005B073
:1021C000BDE8F083E0260008140A0020700F00200C
:1021D000674523018C0D0020F40900200008014010
:1021E00038090020880D0020AFF30080AFF3008095
:1021F00030B52C4D2C48A968AA6811F0800FAB6847
:1022000014BF40244124A96812F0400F14BF4FF0BE
:10221000000C4FF0020C13F0200FAD6804EB0C0E15
:1022200014BF00220422846811F0100F1F4B0EEB24
:10223000020014BF4FF0000C4FF0080C00EB0C0133
:1022400014F4807FC5F3C00493F800E001EB04159B
:102250005C6814BF0022202240204EF0200C60F366
:102260001C04AD185C600CF0EF020821402D38BF53
:1022700040250F4C61F303025F2D28BF5F252580A9
:1022800083B01A700B480C49FEF70AFE00244FF485
:10229000E8714722094B0A480094FEF781FB03B01E
:1022A00030BD00BF000C0140000801408C0D002033
:1022B000880D0020F4090020F026000811210008F4
:1022C000A00D0020AFF30080AFF30080AFF30080DB
:1022D000704700BFAFF30080AFF30080AFF3008022
:1022E000F8B5044615461F460E46FEF7B9FE2046D1
:1022F0000B49FEF755FE2046FEF772FE3946324680
:102300002B462046FEF77CFE2046FEF771FE204657
:10231000FEF756FE2046FEF7ABFE0020F8BD00BFDC
:1023200000270008AFF30080AFF30080AFF3008018
:10233000F8B5124C0646204617460D46FEF790FEAD
:1023400020460F49FEF72CFE2046FEF749FE39468F
:1023500032462046FEF76CFE2046FEF749FE204638
:10236000FEF72EFE2046FEF783FE204605492A464C
:102370000223FFF7B5FF0020F8BD00BF300A0020A0
:1023800000270008840F0020AFF30080AFF3008027
:1023900010B582B00123064C032202A840F8042D98
:1023A00069461A4623706370FFF7C2FF02B010BD82
:1023B000840F0020AFF30080AFF30080AFF3008004
:1023C000704700BFAFF30080AFF30080AFF3008031
:1023D00008B504480021FEF70BFD034B00221A70DC
:1023E00008BD00BFC0090020A00F0020AFF300808F
:1023F000014B33F920007047880F0020AFF30080B5
:1024000040F6D573984230B430D841282AD940F6E6
:10241000C371884230D81B4901220B8840F6C4752D
:10242000984208D30FE02A2A02F1010221D01D466A
:102430006388984207D21D464B888C1C0132984213
:1024400004F10201EFD31FFA82FC0CEB8C02373A45
:10245000EB1A92B2C0EB050C0CEB8C0191FBF3F084
:10246000101800E09B2000B230BC70474FF6C970D6
:10247000F9E7EB1A9B22EDE74FF6C972122340F6FB
:10248000D675E7E714270008AFF30080AFF30080AC
:10249000504A70B513784BB9012313704E484F4919
:1024A0004F4A0823BDE87040FEF7B2BC012BF5D1BE
:1024B0004B4C2189228A208BB4F820C001EB020EFC
:1024C000258D0EEB0003218E03EB0C025019B4F89E
:1024D00000C0238F00EB010E0CEB0E05EA18C2F3CF
:1024E000CF00FFF78DFF20EAE070FDF739FF3D4A8E
:1024F000FF28A8BFFF2001B21160FDF739FFB4F833
:1025000012C0B4F80AE0658B608C0CEB0E0359190D
:10251000B4F82AE0658E01EB000C0CEB0E0360882A
:10252000B4F83AE0591900EB010C0CEB0E03DD1086
:102530002D49680081FB00039D08FDF711FF4FF650
:10254000FF7E7545A8BF754629B25160FDF710FFA3
:10255000A08AB4F80CC0A58BB4F824E000EB0C03FF
:102560005919B4F82CC001EB0E00A58E00EB0C033A
:10257000B4F804E0B4F83CC05D190EEB050101EBC2
:102580000C00FDF7EDFE40F3CF039360FDF7F0FE86
:10259000B4F816E0B4F80EC0E58BE08C0EEB0C013D
:1025A0004B19B4F82EE003EB000CE58EE0880CEB41
:1025B0000E0101EB050EB4F83EC000EB0E030CEB70
:1025C0000300FDF7CDFE40F3CF01D160FDF7D0FE53
:1025D00064E700BFA00F0020C0090020702700089A
:1025E000A40F0020880F00204FECC44EAFF30080F2
:1025F00069646C650000000000000000000000003D
:102600006D61696E00168711040448080C101418D7
:10261000001C1D1E1F200000000000000000000024
:10262000080002400400024000000B001C000240B1
:102630000400024004010C0030000240040002408B
:1026400008020D0044000240040002400C030E008A
:10265000580002400400024010040F006C000240C9
:1026600004000240140510008000024004000240F3
:10267000180611000000000000000000000000002B
:10268000FFFFFFFF3800B3B484438988FFFFFFFFDB
:102690000048444488888888FFFFFFFF888888882E
:1026A00088888888FFFFFFFF448888888888888812
:1026B000FFFFFFFF888888888888888800000000DE
:1026C000626C696E6B6572007461736B32306D732E
:1026D00000000000000000000000000000000000FA
:1026E0007265636569766572000000000000000095
:1026F000400000000500180000000000000000007D
:1027000000000000000801400A0030000000000046
:10271000D60FC40FAB0F8A0F5E0F250FDC0E810E94
:10272000120E8D0DF10C400C7B0BA60AC709E308B5
:102730000008240752069005DD043D04AE03300373
:10274000C20263021002CA018D0158012C01050169
:10275000E400C700AF009900870078006A005E00BF
:1027600053004A004200000000000000000000008A
:102770000000040000000000C12300080000000069
:102780000000000000000000800400120000300083
:082790000000000043A004005A
:0400000508000111DD
:00000001FF
